{
  "_format": "hh-sol-artifact-1",
  "contractName": "ERC20Upgradeable",
  "sourceName": "contracts/suffrage.sol",
  "abi": [
    {
      "anonymous": false,
      "inputs": [
        {
          "indexed": true,
          "internalType": "address",
          "name": "owner",
          "type": "address"
        },
        {
          "indexed": true,
          "internalType": "address",
          "name": "spender",
          "type": "address"
        },
        {
          "indexed": false,
          "internalType": "uint256",
          "name": "value",
          "type": "uint256"
        }
      ],
      "name": "Approval",
      "type": "event"
    },
    {
      "anonymous": false,
      "inputs": [
        {
          "indexed": false,
          "internalType": "uint8",
          "name": "version",
          "type": "uint8"
        }
      ],
      "name": "Initialized",
      "type": "event"
    },
    {
      "anonymous": false,
      "inputs": [
        {
          "indexed": true,
          "internalType": "address",
          "name": "previousOwner",
          "type": "address"
        },
        {
          "indexed": true,
          "internalType": "address",
          "name": "newOwner",
          "type": "address"
        }
      ],
      "name": "OwnershipTransferred",
      "type": "event"
    },
    {
      "anonymous": false,
      "inputs": [
        {
          "indexed": true,
          "internalType": "address",
          "name": "from",
          "type": "address"
        },
        {
          "indexed": true,
          "internalType": "address",
          "name": "to",
          "type": "address"
        },
        {
          "indexed": false,
          "internalType": "uint256",
          "name": "value",
          "type": "uint256"
        }
      ],
      "name": "Transfer",
      "type": "event"
    },
    {
      "inputs": [
        {
          "internalType": "address",
          "name": "owner",
          "type": "address"
        },
        {
          "internalType": "address",
          "name": "spender",
          "type": "address"
        }
      ],
      "name": "allowance",
      "outputs": [
        {
          "internalType": "uint256",
          "name": "",
          "type": "uint256"
        }
      ],
      "stateMutability": "view",
      "type": "function"
    },
    {
      "inputs": [
        {
          "internalType": "address",
          "name": "spender",
          "type": "address"
        },
        {
          "internalType": "uint256",
          "name": "amount",
          "type": "uint256"
        }
      ],
      "name": "approve",
      "outputs": [
        {
          "internalType": "bool",
          "name": "",
          "type": "bool"
        }
      ],
      "stateMutability": "nonpayable",
      "type": "function"
    },
    {
      "inputs": [
        {
          "internalType": "address",
          "name": "account",
          "type": "address"
        }
      ],
      "name": "balanceOf",
      "outputs": [
        {
          "internalType": "uint256",
          "name": "",
          "type": "uint256"
        }
      ],
      "stateMutability": "view",
      "type": "function"
    },
    {
      "inputs": [
        {
          "internalType": "address",
          "name": "account",
          "type": "address"
        },
        {
          "internalType": "uint256",
          "name": "amount",
          "type": "uint256"
        }
      ],
      "name": "burnFrom",
      "outputs": [],
      "stateMutability": "nonpayable",
      "type": "function"
    },
    {
      "inputs": [],
      "name": "decimals",
      "outputs": [
        {
          "internalType": "uint8",
          "name": "",
          "type": "uint8"
        }
      ],
      "stateMutability": "view",
      "type": "function"
    },
    {
      "inputs": [
        {
          "internalType": "address",
          "name": "spender",
          "type": "address"
        },
        {
          "internalType": "uint256",
          "name": "subtractedValue",
          "type": "uint256"
        }
      ],
      "name": "decreaseAllowance",
      "outputs": [
        {
          "internalType": "bool",
          "name": "",
          "type": "bool"
        }
      ],
      "stateMutability": "nonpayable",
      "type": "function"
    },
    {
      "inputs": [
        {
          "internalType": "address",
          "name": "spender",
          "type": "address"
        },
        {
          "internalType": "uint256",
          "name": "addedValue",
          "type": "uint256"
        }
      ],
      "name": "increaseAllowance",
      "outputs": [
        {
          "internalType": "bool",
          "name": "",
          "type": "bool"
        }
      ],
      "stateMutability": "nonpayable",
      "type": "function"
    },
    {
      "inputs": [
        {
          "internalType": "address",
          "name": "account",
          "type": "address"
        },
        {
          "internalType": "uint256",
          "name": "amount",
          "type": "uint256"
        }
      ],
      "name": "mintTo",
      "outputs": [],
      "stateMutability": "nonpayable",
      "type": "function"
    },
    {
      "inputs": [],
      "name": "name",
      "outputs": [
        {
          "internalType": "string",
          "name": "",
          "type": "string"
        }
      ],
      "stateMutability": "view",
      "type": "function"
    },
    {
      "inputs": [],
      "name": "owner",
      "outputs": [
        {
          "internalType": "address",
          "name": "",
          "type": "address"
        }
      ],
      "stateMutability": "view",
      "type": "function"
    },
    {
      "inputs": [],
      "name": "renounceOwnership",
      "outputs": [],
      "stateMutability": "nonpayable",
      "type": "function"
    },
    {
      "inputs": [],
      "name": "symbol",
      "outputs": [
        {
          "internalType": "string",
          "name": "",
          "type": "string"
        }
      ],
      "stateMutability": "view",
      "type": "function"
    },
    {
      "inputs": [],
      "name": "totalSupply",
      "outputs": [
        {
          "internalType": "uint256",
          "name": "",
          "type": "uint256"
        }
      ],
      "stateMutability": "view",
      "type": "function"
    },
    {
      "inputs": [
        {
          "internalType": "address",
          "name": "to",
          "type": "address"
        },
        {
          "internalType": "uint256",
          "name": "amount",
          "type": "uint256"
        }
      ],
      "name": "transfer",
      "outputs": [
        {
          "internalType": "bool",
          "name": "",
          "type": "bool"
        }
      ],
      "stateMutability": "nonpayable",
      "type": "function"
    },
    {
      "inputs": [
        {
          "internalType": "address",
          "name": "from",
          "type": "address"
        },
        {
          "internalType": "address",
          "name": "to",
          "type": "address"
        },
        {
          "internalType": "uint256",
          "name": "amount",
          "type": "uint256"
        }
      ],
      "name": "transferFrom",
      "outputs": [
        {
          "internalType": "bool",
          "name": "",
          "type": "bool"
        }
      ],
      "stateMutability": "nonpayable",
      "type": "function"
    },
    {
      "inputs": [
        {
          "internalType": "address",
          "name": "newOwner",
          "type": "address"
        }
      ],
      "name": "transferOwnership",
      "outputs": [],
      "stateMutability": "nonpayable",
      "type": "function"
    }
  ],
  "bytecode": "0x608060405234801561001057600080fd5b50611ce6806100206000396000f3fe608060405234801561001057600080fd5b50600436106101005760003560e01c8063715018a611610097578063a457c2d711610066578063a457c2d71461029d578063a9059cbb146102cd578063dd62ed3e146102fd578063f2fde38b1461032d57610100565b8063715018a61461023b57806379cc6790146102455780638da5cb5b1461026157806395d89b411461027f57610100565b8063313ce567116100d3578063313ce567146101a157806339509351146101bf578063449a52f8146101ef57806370a082311461020b57610100565b806306fdde0314610105578063095ea7b31461012357806318160ddd1461015357806323b872dd14610171575b600080fd5b61010d610349565b60405161011a9190611599565b60405180910390f35b61013d6004803603810190610138919061130e565b6103db565b60405161014a919061157e565b60405180910390f35b61015b6103fe565b604051610168919061173b565b60405180910390f35b61018b600480360381019061018691906112bf565b610408565b604051610198919061157e565b60405180910390f35b6101a9610437565b6040516101b69190611756565b60405180910390f35b6101d960048036038101906101d4919061130e565b610440565b6040516101e6919061157e565b60405180910390f35b6102096004803603810190610204919061130e565b610477565b005b6102256004803603810190610220919061125a565b610501565b604051610232919061173b565b60405180910390f35b61024361054a565b005b61025f600480360381019061025a919061130e565b6105d2565b005b61026961066e565b6040516102769190611563565b60405180910390f35b610287610698565b6040516102949190611599565b60405180910390f35b6102b760048036038101906102b2919061130e565b61072a565b6040516102c4919061157e565b60405180910390f35b6102e760048036038101906102e2919061130e565b6107a1565b6040516102f4919061157e565b60405180910390f35b61031760048036038101906103129190611283565b6107c4565b604051610324919061173b565b60405180910390f35b6103476004803603810190610342919061125a565b61084b565b005b6060606880546103589061189f565b80601f01602080910402602001604051908101604052809291908181526020018280546103849061189f565b80156103d15780601f106103a6576101008083540402835291602001916103d1565b820191906000526020600020905b8154815290600101906020018083116103b457829003601f168201915b5050505050905090565b6000806103e6610943565b90506103f381858561094b565b600191505092915050565b6000606754905090565b600080610413610943565b9050610420858285610b16565b61042b858585610ba2565b60019150509392505050565b60006009905090565b60008061044b610943565b905061046c81858561045d85896107c4565b610467919061178d565b61094b565b600191505092915050565b61047f610943565b73ffffffffffffffffffffffffffffffffffffffff1661049d61066e565b73ffffffffffffffffffffffffffffffffffffffff16146104f3576040517f08c379a00000000000000000000000000000000000000000000000000000000081526004016104ea9061167b565b60405180910390fd5b6104fd8282610e26565b5050565b6000606560008373ffffffffffffffffffffffffffffffffffffffff1673ffffffffffffffffffffffffffffffffffffffff168152602001908152602001600020549050919050565b610552610943565b73ffffffffffffffffffffffffffffffffffffffff1661057061066e565b73ffffffffffffffffffffffffffffffffffffffff16146105c6576040517f08c379a00000000000000000000000000000000000000000000000000000000081526004016105bd9061167b565b60405180910390fd5b6105d06000610f87565b565b6105da610943565b73ffffffffffffffffffffffffffffffffffffffff166105f861066e565b73ffffffffffffffffffffffffffffffffffffffff161461064e576040517f08c379a00000000000000000000000000000000000000000000000000000000081526004016106459061167b565b60405180910390fd5b6106608261065a610943565b83610b16565b61066a828261104d565b5050565b6000603360009054906101000a900473ffffffffffffffffffffffffffffffffffffffff16905090565b6060606980546106a79061189f565b80601f01602080910402602001604051908101604052809291908181526020018280546106d39061189f565b80156107205780601f106106f557610100808354040283529160200191610720565b820191906000526020600020905b81548152906001019060200180831161070357829003601f168201915b5050505050905090565b600080610735610943565b9050600061074382866107c4565b905083811015610788576040517f08c379a000000000000000000000000000000000000000000000000000000000815260040161077f906116fb565b60405180910390fd5b610795828686840361094b565b60019250505092915050565b6000806107ac610943565b90506107b9818585610ba2565b600191505092915050565b6000606660008473ffffffffffffffffffffffffffffffffffffffff1673ffffffffffffffffffffffffffffffffffffffff16815260200190815260200160002060008373ffffffffffffffffffffffffffffffffffffffff1673ffffffffffffffffffffffffffffffffffffffff16815260200190815260200160002054905092915050565b610853610943565b73ffffffffffffffffffffffffffffffffffffffff1661087161066e565b73ffffffffffffffffffffffffffffffffffffffff16146108c7576040517f08c379a00000000000000000000000000000000000000000000000000000000081526004016108be9061167b565b60405180910390fd5b600073ffffffffffffffffffffffffffffffffffffffff168173ffffffffffffffffffffffffffffffffffffffff161415610937576040517f08c379a000000000000000000000000000000000000000000000000000000000815260040161092e906115fb565b60405180910390fd5b61094081610f87565b50565b600033905090565b600073ffffffffffffffffffffffffffffffffffffffff168373ffffffffffffffffffffffffffffffffffffffff1614156109bb576040517f08c379a00000000000000000000000000000000000000000000000000000000081526004016109b2906116db565b60405180910390fd5b600073ffffffffffffffffffffffffffffffffffffffff168273ffffffffffffffffffffffffffffffffffffffff161415610a2b576040517f08c379a0000000000000000000000000000000000000000000000000000000008152600401610a229061161b565b60405180910390fd5b80606660008573ffffffffffffffffffffffffffffffffffffffff1673ffffffffffffffffffffffffffffffffffffffff16815260200190815260200160002060008473ffffffffffffffffffffffffffffffffffffffff1673ffffffffffffffffffffffffffffffffffffffff168152602001908152602001600020819055508173ffffffffffffffffffffffffffffffffffffffff168373ffffffffffffffffffffffffffffffffffffffff167f8c5be1e5ebec7d5bd14f71427d1e84f3dd0314c0f7b2291e5b200ac8c7c3b92583604051610b09919061173b565b60405180910390a3505050565b6000610b2284846107c4565b90507fffffffffffffffffffffffffffffffffffffffffffffffffffffffffffffffff8114610b9c5781811015610b8e576040517f08c379a0000000000000000000000000000000000000000000000000000000008152600401610b859061163b565b60405180910390fd5b610b9b848484840361094b565b5b50505050565b600073ffffffffffffffffffffffffffffffffffffffff168373ffffffffffffffffffffffffffffffffffffffff161415610c12576040517f08c379a0000000000000000000000000000000000000000000000000000000008152600401610c09906116bb565b60405180910390fd5b600073ffffffffffffffffffffffffffffffffffffffff168273ffffffffffffffffffffffffffffffffffffffff161415610c82576040517f08c379a0000000000000000000000000000000000000000000000000000000008152600401610c79906115bb565b60405180910390fd5b610c8d838383611226565b6000606560008573ffffffffffffffffffffffffffffffffffffffff1673ffffffffffffffffffffffffffffffffffffffff16815260200190815260200160002054905081811015610d14576040517f08c379a0000000000000000000000000000000000000000000000000000000008152600401610d0b9061165b565b60405180910390fd5b818103606560008673ffffffffffffffffffffffffffffffffffffffff1673ffffffffffffffffffffffffffffffffffffffff1681526020019081526020016000208190555081606560008573ffffffffffffffffffffffffffffffffffffffff1673ffffffffffffffffffffffffffffffffffffffff1681526020019081526020016000206000828254610da9919061178d565b925050819055508273ffffffffffffffffffffffffffffffffffffffff168473ffffffffffffffffffffffffffffffffffffffff167fddf252ad1be2c89b69c2b068fc378daa952ba7f163c4a11628f55a4df523b3ef84604051610e0d919061173b565b60405180910390a3610e2084848461122b565b50505050565b600073ffffffffffffffffffffffffffffffffffffffff168273ffffffffffffffffffffffffffffffffffffffff161415610e96576040517f08c379a0000000000000000000000000000000000000000000000000000000008152600401610e8d9061171b565b60405180910390fd5b610ea260008383611226565b8060676000828254610eb4919061178d565b9250508190555080606560008473ffffffffffffffffffffffffffffffffffffffff1673ffffffffffffffffffffffffffffffffffffffff1681526020019081526020016000206000828254610f0a919061178d565b925050819055508173ffffffffffffffffffffffffffffffffffffffff16600073ffffffffffffffffffffffffffffffffffffffff167fddf252ad1be2c89b69c2b068fc378daa952ba7f163c4a11628f55a4df523b3ef83604051610f6f919061173b565b60405180910390a3610f836000838361122b565b5050565b6000603360009054906101000a900473ffffffffffffffffffffffffffffffffffffffff16905081603360006101000a81548173ffffffffffffffffffffffffffffffffffffffff021916908373ffffffffffffffffffffffffffffffffffffffff1602179055508173ffffffffffffffffffffffffffffffffffffffff168173ffffffffffffffffffffffffffffffffffffffff167f8be0079c531659141344cd1fd0a4f28419497f9722a3daafe3b4186f6b6457e060405160405180910390a35050565b600073ffffffffffffffffffffffffffffffffffffffff168273ffffffffffffffffffffffffffffffffffffffff1614156110bd576040517f08c379a00000000000000000000000000000000000000000000000000000000081526004016110b49061169b565b60405180910390fd5b6110c982600083611226565b6000606560008473ffffffffffffffffffffffffffffffffffffffff1673ffffffffffffffffffffffffffffffffffffffff16815260200190815260200160002054905081811015611150576040517f08c379a0000000000000000000000000000000000000000000000000000000008152600401611147906115db565b60405180910390fd5b818103606560008573ffffffffffffffffffffffffffffffffffffffff1673ffffffffffffffffffffffffffffffffffffffff1681526020019081526020016000208190555081606760008282546111a891906117e3565b92505081905550600073ffffffffffffffffffffffffffffffffffffffff168373ffffffffffffffffffffffffffffffffffffffff167fddf252ad1be2c89b69c2b068fc378daa952ba7f163c4a11628f55a4df523b3ef8460405161120d919061173b565b60405180910390a36112218360008461122b565b505050565b505050565b505050565b60008135905061123f81611c82565b92915050565b60008135905061125481611c99565b92915050565b60006020828403121561126c57600080fd5b600061127a84828501611230565b91505092915050565b6000806040838503121561129657600080fd5b60006112a485828601611230565b92505060206112b585828601611230565b9150509250929050565b6000806000606084860312156112d457600080fd5b60006112e286828701611230565b93505060206112f386828701611230565b925050604061130486828701611245565b9150509250925092565b6000806040838503121561132157600080fd5b600061132f85828601611230565b925050602061134085828601611245565b9150509250929050565b61135381611817565b82525050565b61136281611829565b82525050565b600061137382611771565b61137d818561177c565b935061138d81856020860161186c565b6113968161192f565b840191505092915050565b60006113ae60238361177c565b91506113b982611940565b604082019050919050565b60006113d160228361177c565b91506113dc8261198f565b604082019050919050565b60006113f460268361177c565b91506113ff826119de565b604082019050919050565b600061141760228361177c565b915061142282611a2d565b604082019050919050565b600061143a601d8361177c565b915061144582611a7c565b602082019050919050565b600061145d60268361177c565b915061146882611aa5565b604082019050919050565b600061148060208361177c565b915061148b82611af4565b602082019050919050565b60006114a360218361177c565b91506114ae82611b1d565b604082019050919050565b60006114c660258361177c565b91506114d182611b6c565b604082019050919050565b60006114e960248361177c565b91506114f482611bbb565b604082019050919050565b600061150c60258361177c565b915061151782611c0a565b604082019050919050565b600061152f601f8361177c565b915061153a82611c59565b602082019050919050565b61154e81611855565b82525050565b61155d8161185f565b82525050565b6000602082019050611578600083018461134a565b92915050565b60006020820190506115936000830184611359565b92915050565b600060208201905081810360008301526115b38184611368565b905092915050565b600060208201905081810360008301526115d4816113a1565b9050919050565b600060208201905081810360008301526115f4816113c4565b9050919050565b60006020820190508181036000830152611614816113e7565b9050919050565b600060208201905081810360008301526116348161140a565b9050919050565b600060208201905081810360008301526116548161142d565b9050919050565b6000602082019050818103600083015261167481611450565b9050919050565b6000602082019050818103600083015261169481611473565b9050919050565b600060208201905081810360008301526116b481611496565b9050919050565b600060208201905081810360008301526116d4816114b9565b9050919050565b600060208201905081810360008301526116f4816114dc565b9050919050565b60006020820190508181036000830152611714816114ff565b9050919050565b6000602082019050818103600083015261173481611522565b9050919050565b60006020820190506117506000830184611545565b92915050565b600060208201905061176b6000830184611554565b92915050565b600081519050919050565b600082825260208201905092915050565b600061179882611855565b91506117a383611855565b9250827fffffffffffffffffffffffffffffffffffffffffffffffffffffffffffffffff038211156117d8576117d76118d1565b5b828201905092915050565b60006117ee82611855565b91506117f983611855565b92508282101561180c5761180b6118d1565b5b828203905092915050565b600061182282611835565b9050919050565b60008115159050919050565b600073ffffffffffffffffffffffffffffffffffffffff82169050919050565b6000819050919050565b600060ff82169050919050565b60005b8381101561188a57808201518184015260208101905061186f565b83811115611899576000848401525b50505050565b600060028204905060018216806118b757607f821691505b602082108114156118cb576118ca611900565b5b50919050565b7f4e487b7100000000000000000000000000000000000000000000000000000000600052601160045260246000fd5b7f4e487b7100000000000000000000000000000000000000000000000000000000600052602260045260246000fd5b6000601f19601f8301169050919050565b7f45524332303a207472616e7366657220746f20746865207a65726f206164647260008201527f6573730000000000000000000000000000000000000000000000000000000000602082015250565b7f45524332303a206275726e20616d6f756e7420657863656564732062616c616e60008201527f6365000000000000000000000000000000000000000000000000000000000000602082015250565b7f4f776e61626c653a206e6577206f776e657220697320746865207a65726f206160008201527f6464726573730000000000000000000000000000000000000000000000000000602082015250565b7f45524332303a20617070726f766520746f20746865207a65726f20616464726560008201527f7373000000000000000000000000000000000000000000000000000000000000602082015250565b7f45524332303a20696e73756666696369656e7420616c6c6f77616e6365000000600082015250565b7f45524332303a207472616e7366657220616d6f756e742065786365656473206260008201527f616c616e63650000000000000000000000000000000000000000000000000000602082015250565b7f4f776e61626c653a2063616c6c6572206973206e6f7420746865206f776e6572600082015250565b7f45524332303a206275726e2066726f6d20746865207a65726f2061646472657360008201527f7300000000000000000000000000000000000000000000000000000000000000602082015250565b7f45524332303a207472616e736665722066726f6d20746865207a65726f20616460008201527f6472657373000000000000000000000000000000000000000000000000000000602082015250565b7f45524332303a20617070726f76652066726f6d20746865207a65726f2061646460008201527f7265737300000000000000000000000000000000000000000000000000000000602082015250565b7f45524332303a2064656372656173656420616c6c6f77616e63652062656c6f7760008201527f207a65726f000000000000000000000000000000000000000000000000000000602082015250565b7f45524332303a206d696e7420746f20746865207a65726f206164647265737300600082015250565b611c8b81611817565b8114611c9657600080fd5b50565b611ca281611855565b8114611cad57600080fd5b5056fea2646970667358221220075824942028c0dc414613962cf03ec385f728ad8a7623fde82a081fa5ef963764736f6c63430008040033",
  "linkReferences": {},
  "deployedLinkReferences": {}
}